{
  "transactions": [
    {
      "hash": "0x20d16e15f56357f3bc5dd327fd7b81555f45327f90271618342deb9c8f24979d",
      "transactionType": "CALL",
      "contractName": null,
      "contractAddress": "0x95e34b9a99c1b64f2e913b37e01608326b245b66",
      "function": "setFeeProtocol(uint8,uint8)",
      "arguments": [
        "10",
        "10"
      ],
      "transaction": {
        "from": "0xa02dff65555753bfc4e1a16c7c9cff48d5a10dfe",
        "to": "0x95e34b9a99c1b64f2e913b37e01608326b245b66",
        "gas": "0xc6c5",
        "value": "0x0",
        "input": "0x8206a4d1000000000000000000000000000000000000000000000000000000000000000a000000000000000000000000000000000000000000000000000000000000000a",
        "nonce": "0x1",
        "chainId": "0x28c65"
      },
      "additionalContracts": [],
      "isFixedGasLimit": false
    }
  ],
  "receipts": [
    {
      "status": "0x1",
      "cumulativeGasUsed": "0xab8f6",
      "logs": [
        {
          "address": "0x95e34b9a99c1b64f2e913b37e01608326b245b66",
          "topics": [
            "0x973d8d92bb299f4af6ce49b52a8adb85ae46b9f214c4c4fc06ac77401237b133"
          ],
          "data": "0x00000000000000000000000000000000000000000000000000000000000000000000000000000000000000000000000000000000000000000000000000000000000000000000000000000000000000000000000000000000000000000000000a000000000000000000000000000000000000000000000000000000000000000a",
          "blockHash": "0xf124a70cb5914826b971cd3ac707ba2db4409572cac9c0eacf603396145dd71e",
          "blockNumber": "0x58578",
          "transactionHash": "0x20d16e15f56357f3bc5dd327fd7b81555f45327f90271618342deb9c8f24979d",
          "transactionIndex": "0x1a",
          "logIndex": "0x3",
          "removed": false
        }
      ],
      "logsBloom": "0x00000000000000000010000000000000000000000000000000000000000000000000000000000000000000000000000000000000000000200000000000000000000000000000000010000000000000000000000000000000000000000000000000000000000000800000000000000000000000000000000000000000000000000000000000000000000000000000000000000000000000000000000000000000000000000000000000000000000000000000000000000000000000000000000000000000000400000000000000000000000000000000000000000000000000000000000000000000000000000000000000000000000000001000000000000000",
      "type": "0x2",
      "transactionHash": "0x20d16e15f56357f3bc5dd327fd7b81555f45327f90271618342deb9c8f24979d",
      "transactionIndex": "0x1a",
      "blockHash": "0xf124a70cb5914826b971cd3ac707ba2db4409572cac9c0eacf603396145dd71e",
      "blockNumber": "0x58578",
      "gasUsed": "0x87ea",
      "effectiveGasPrice": "0x17d7841",
      "from": "0xa02dff65555753bfc4e1a16c7c9cff48d5a10dfe",
      "to": "0x95e34b9a99c1b64f2e913b37e01608326b245b66",
      "contractAddress": null
    }
  ],
  "libraries": [],
  "pending": [],
  "returns": {},
  "timestamp": 1761926075489,
  "chain": 167013,
  "commit": "71eb804"
}